{
  "_format": "hh-sol-artifact-1",
  "contractName": "Escrow",
  "sourceName": "contracts/Escrow.sol",
  "abi": [
    {
      "inputs": [
        {
          "internalType": "address",
          "name": "_nftAddress",
          "type": "address"
        },
        {
          "internalType": "address payable",
          "name": "_seller",
          "type": "address"
        },
        {
          "internalType": "address",
          "name": "_inspector",
          "type": "address"
        },
        {
          "internalType": "address",
          "name": "_lender",
          "type": "address"
        }
      ],
      "stateMutability": "nonpayable",
      "type": "constructor"
    },
    {
      "inputs": [
        {
          "internalType": "uint256",
          "name": "",
          "type": "uint256"
        }
      ],
      "name": "buyer",
      "outputs": [
        {
          "internalType": "address",
          "name": "",
          "type": "address"
        }
      ],
      "stateMutability": "view",
      "type": "function"
    },
    {
      "inputs": [
        {
          "internalType": "uint256",
          "name": "",
          "type": "uint256"
        }
      ],
      "name": "escrowAmount",
      "outputs": [
        {
          "internalType": "uint256",
          "name": "",
          "type": "uint256"
        }
      ],
      "stateMutability": "view",
      "type": "function"
    },
    {
      "inputs": [],
      "name": "inspector",
      "outputs": [
        {
          "internalType": "address",
          "name": "",
          "type": "address"
        }
      ],
      "stateMutability": "view",
      "type": "function"
    },
    {
      "inputs": [
        {
          "internalType": "uint256",
          "name": "",
          "type": "uint256"
        }
      ],
      "name": "isListed",
      "outputs": [
        {
          "internalType": "bool",
          "name": "",
          "type": "bool"
        }
      ],
      "stateMutability": "view",
      "type": "function"
    },
    {
      "inputs": [],
      "name": "lender",
      "outputs": [
        {
          "internalType": "address",
          "name": "",
          "type": "address"
        }
      ],
      "stateMutability": "view",
      "type": "function"
    },
    {
      "inputs": [
        {
          "internalType": "uint256",
          "name": "_nftID",
          "type": "uint256"
        },
        {
          "internalType": "address",
          "name": "_buyer",
          "type": "address"
        },
        {
          "internalType": "uint256",
          "name": "_purchasePrice",
          "type": "uint256"
        },
        {
          "internalType": "uint256",
          "name": "_escrowAmount",
          "type": "uint256"
        }
      ],
      "name": "list",
      "outputs": [],
      "stateMutability": "nonpayable",
      "type": "function"
    },
    {
      "inputs": [],
      "name": "nftAddress",
      "outputs": [
        {
          "internalType": "address",
          "name": "",
          "type": "address"
        }
      ],
      "stateMutability": "view",
      "type": "function"
    },
    {
      "inputs": [
        {
          "internalType": "uint256",
          "name": "",
          "type": "uint256"
        }
      ],
      "name": "purchasePrice",
      "outputs": [
        {
          "internalType": "uint256",
          "name": "",
          "type": "uint256"
        }
      ],
      "stateMutability": "view",
      "type": "function"
    },
    {
      "inputs": [],
      "name": "seller",
      "outputs": [
        {
          "internalType": "address payable",
          "name": "",
          "type": "address"
        }
      ],
      "stateMutability": "view",
      "type": "function"
    }
  ],
  "bytecode": "0x608060405234801561001057600080fd5b506040516108fd3803806108fd833981810160405281019061003291906101df565b836000806101000a81548173ffffffffffffffffffffffffffffffffffffffff021916908373ffffffffffffffffffffffffffffffffffffffff16021790555082600160006101000a81548173ffffffffffffffffffffffffffffffffffffffff021916908373ffffffffffffffffffffffffffffffffffffffff16021790555081600360006101000a81548173ffffffffffffffffffffffffffffffffffffffff021916908373ffffffffffffffffffffffffffffffffffffffff16021790555080600260006101000a81548173ffffffffffffffffffffffffffffffffffffffff021916908373ffffffffffffffffffffffffffffffffffffffff16021790555050505050610246565b600080fd5b600073ffffffffffffffffffffffffffffffffffffffff82169050919050565b600061016e82610143565b9050919050565b61017e81610163565b811461018957600080fd5b50565b60008151905061019b81610175565b92915050565b60006101ac82610143565b9050919050565b6101bc816101a1565b81146101c757600080fd5b50565b6000815190506101d9816101b3565b92915050565b600080600080608085870312156101f9576101f861013e565b5b60006102078782880161018c565b9450506020610218878288016101ca565b93505060406102298782880161018c565b925050606061023a8782880161018c565b91505092959194509250565b6106a8806102556000396000f3fe608060405234801561001057600080fd5b50600436106100935760003560e01c806377fbc4ae1161006657806377fbc4ae14610134578063bcead63e14610164578063c9f0ec7e14610182578063ed2cee9e1461019e578063fcce4883146101bc57610093565b806308551a53146100985780634dd4acaf146100b65780635bf8633a146100e65780635d19e56c14610104575b600080fd5b6100a06101ec565b6040516100ad9190610489565b60405180910390f35b6100d060048036038101906100cb91906104df565b610212565b6040516100dd919061052d565b60405180910390f35b6100ee610245565b6040516100fb919061052d565b60405180910390f35b61011e600480360381019061011991906104df565b610269565b60405161012b9190610557565b60405180910390f35b61014e600480360381019061014991906104df565b610281565b60405161015b9190610557565b60405180910390f35b61016c610299565b604051610179919061052d565b60405180910390f35b61019c6004803603810190610197919061059e565b6102bf565b005b6101a6610402565b6040516101b3919061052d565b60405180910390f35b6101d660048036038101906101d191906104df565b610428565b6040516101e39190610620565b60405180910390f35b600160009054906101000a900473ffffffffffffffffffffffffffffffffffffffff1681565b60076020528060005260406000206000915054906101000a900473ffffffffffffffffffffffffffffffffffffffff1681565b60008054906101000a900473ffffffffffffffffffffffffffffffffffffffff1681565b60066020528060005260406000206000915090505481565b60056020528060005260406000206000915090505481565b600260009054906101000a900473ffffffffffffffffffffffffffffffffffffffff1681565b60008054906101000a900473ffffffffffffffffffffffffffffffffffffffff1673ffffffffffffffffffffffffffffffffffffffff166323b872dd3330876040518463ffffffff1660e01b815260040161031c9392919061063b565b600060405180830381600087803b15801561033657600080fd5b505af115801561034a573d6000803e3d6000fd5b5050505060016004600086815260200190815260200160002060006101000a81548160ff021916908315150217905550816005600086815260200190815260200160002081905550826007600086815260200190815260200160002060006101000a81548173ffffffffffffffffffffffffffffffffffffffff021916908373ffffffffffffffffffffffffffffffffffffffff16021790555080600660008681526020019081526020016000208190555050505050565b600360009054906101000a900473ffffffffffffffffffffffffffffffffffffffff1681565b60046020528060005260406000206000915054906101000a900460ff1681565b600073ffffffffffffffffffffffffffffffffffffffff82169050919050565b600061047382610448565b9050919050565b61048381610468565b82525050565b600060208201905061049e600083018461047a565b92915050565b600080fd5b6000819050919050565b6104bc816104a9565b81146104c757600080fd5b50565b6000813590506104d9816104b3565b92915050565b6000602082840312156104f5576104f46104a4565b5b6000610503848285016104ca565b91505092915050565b600061051782610448565b9050919050565b6105278161050c565b82525050565b6000602082019050610542600083018461051e565b92915050565b610551816104a9565b82525050565b600060208201905061056c6000830184610548565b92915050565b61057b8161050c565b811461058657600080fd5b50565b60008135905061059881610572565b92915050565b600080600080608085870312156105b8576105b76104a4565b5b60006105c6878288016104ca565b94505060206105d787828801610589565b93505060406105e8878288016104ca565b92505060606105f9878288016104ca565b91505092959194509250565b60008115159050919050565b61061a81610605565b82525050565b60006020820190506106356000830184610611565b92915050565b6000606082019050610650600083018661051e565b61065d602083018561051e565b61066a6040830184610548565b94935050505056fea2646970667358221220ca481f8774c4e2affee174b8e0b2e8dcd4649fed6d92db397420858cdba2749264736f6c63430008110033",
  "linkReferences": {},
  "deployedLinkReferences": {}
}