{
  "_format": "hh-sol-artifact-1",
  "contractName": "Escrow",
  "sourceName": "contracts/Escrow.sol",
  "abi": [
    {
      "inputs": [
        {
          "internalType": "address",
          "name": "_nftAddress",
          "type": "address"
        },
        {
          "internalType": "address payable",
          "name": "_seller",
          "type": "address"
        },
        {
          "internalType": "address",
          "name": "_inspector",
          "type": "address"
        },
        {
          "internalType": "address",
          "name": "_lender",
          "type": "address"
        }
      ],
      "stateMutability": "nonpayable",
      "type": "constructor"
    },
    {
      "inputs": [
        {
          "internalType": "uint256",
          "name": "",
          "type": "uint256"
        },
        {
          "internalType": "address",
          "name": "",
          "type": "address"
        }
      ],
      "name": "approval",
      "outputs": [
        {
          "internalType": "bool",
          "name": "",
          "type": "bool"
        }
      ],
      "stateMutability": "view",
      "type": "function"
    },
    {
      "inputs": [
        {
          "internalType": "uint256",
          "name": "_nftID",
          "type": "uint256"
        }
      ],
      "name": "approveSale",
      "outputs": [],
      "stateMutability": "nonpayable",
      "type": "function"
    },
    {
      "inputs": [
        {
          "internalType": "uint256",
          "name": "",
          "type": "uint256"
        }
      ],
      "name": "buyer",
      "outputs": [
        {
          "internalType": "address",
          "name": "",
          "type": "address"
        }
      ],
      "stateMutability": "view",
      "type": "function"
    },
    {
      "inputs": [
        {
          "internalType": "uint256",
          "name": "_nftID",
          "type": "uint256"
        }
      ],
      "name": "depositEarnest",
      "outputs": [],
      "stateMutability": "payable",
      "type": "function"
    },
    {
      "inputs": [
        {
          "internalType": "uint256",
          "name": "",
          "type": "uint256"
        }
      ],
      "name": "escrowAmount",
      "outputs": [
        {
          "internalType": "uint256",
          "name": "",
          "type": "uint256"
        }
      ],
      "stateMutability": "view",
      "type": "function"
    },
    {
      "inputs": [
        {
          "internalType": "uint256",
          "name": "_nftID",
          "type": "uint256"
        }
      ],
      "name": "finalizeSale",
      "outputs": [],
      "stateMutability": "nonpayable",
      "type": "function"
    },
    {
      "inputs": [],
      "name": "getBalance",
      "outputs": [
        {
          "internalType": "uint256",
          "name": "",
          "type": "uint256"
        }
      ],
      "stateMutability": "view",
      "type": "function"
    },
    {
      "inputs": [
        {
          "internalType": "uint256",
          "name": "",
          "type": "uint256"
        }
      ],
      "name": "inspectionPassed",
      "outputs": [
        {
          "internalType": "bool",
          "name": "",
          "type": "bool"
        }
      ],
      "stateMutability": "view",
      "type": "function"
    },
    {
      "inputs": [],
      "name": "inspector",
      "outputs": [
        {
          "internalType": "address",
          "name": "",
          "type": "address"
        }
      ],
      "stateMutability": "view",
      "type": "function"
    },
    {
      "inputs": [
        {
          "internalType": "uint256",
          "name": "",
          "type": "uint256"
        }
      ],
      "name": "isListed",
      "outputs": [
        {
          "internalType": "bool",
          "name": "",
          "type": "bool"
        }
      ],
      "stateMutability": "view",
      "type": "function"
    },
    {
      "inputs": [],
      "name": "lender",
      "outputs": [
        {
          "internalType": "address",
          "name": "",
          "type": "address"
        }
      ],
      "stateMutability": "view",
      "type": "function"
    },
    {
      "inputs": [
        {
          "internalType": "uint256",
          "name": "_nftID",
          "type": "uint256"
        },
        {
          "internalType": "address",
          "name": "_buyer",
          "type": "address"
        },
        {
          "internalType": "uint256",
          "name": "_purchasePrice",
          "type": "uint256"
        },
        {
          "internalType": "uint256",
          "name": "_escrowAmount",
          "type": "uint256"
        }
      ],
      "name": "list",
      "outputs": [],
      "stateMutability": "payable",
      "type": "function"
    },
    {
      "inputs": [],
      "name": "nftAddress",
      "outputs": [
        {
          "internalType": "address",
          "name": "",
          "type": "address"
        }
      ],
      "stateMutability": "view",
      "type": "function"
    },
    {
      "inputs": [
        {
          "internalType": "uint256",
          "name": "",
          "type": "uint256"
        }
      ],
      "name": "purchasePrice",
      "outputs": [
        {
          "internalType": "uint256",
          "name": "",
          "type": "uint256"
        }
      ],
      "stateMutability": "view",
      "type": "function"
    },
    {
      "inputs": [],
      "name": "seller",
      "outputs": [
        {
          "internalType": "address payable",
          "name": "",
          "type": "address"
        }
      ],
      "stateMutability": "view",
      "type": "function"
    },
    {
      "inputs": [
        {
          "internalType": "uint256",
          "name": "_nftID",
          "type": "uint256"
        },
        {
          "internalType": "bool",
          "name": "_passed",
          "type": "bool"
        }
      ],
      "name": "updateInspectionStatus",
      "outputs": [],
      "stateMutability": "nonpayable",
      "type": "function"
    },
    {
      "stateMutability": "payable",
      "type": "receive"
    }
  ],
  "bytecode": "0x60806040523480156200001157600080fd5b50604051620013f1380380620013f18339818101604052810190620000379190620001f3565b836000806101000a81548173ffffffffffffffffffffffffffffffffffffffff021916908373ffffffffffffffffffffffffffffffffffffffff16021790555082600160006101000a81548173ffffffffffffffffffffffffffffffffffffffff021916908373ffffffffffffffffffffffffffffffffffffffff16021790555081600360006101000a81548173ffffffffffffffffffffffffffffffffffffffff021916908373ffffffffffffffffffffffffffffffffffffffff16021790555080600260006101000a81548173ffffffffffffffffffffffffffffffffffffffff021916908373ffffffffffffffffffffffffffffffffffffffff1602179055505050505062000265565b600080fd5b600073ffffffffffffffffffffffffffffffffffffffff82169050919050565b6000620001768262000149565b9050919050565b620001888162000169565b81146200019457600080fd5b50565b600081519050620001a8816200017d565b92915050565b6000620001bb8262000149565b9050919050565b620001cd81620001ae565b8114620001d957600080fd5b50565b600081519050620001ed81620001c2565b92915050565b6000806000806080858703121562000210576200020f62000144565b5b6000620002208782880162000197565b94505060206200023387828801620001dc565b9350506040620002468782880162000197565b9250506060620002598782880162000197565b91505092959194509250565b61117c80620002756000396000f3fe6080604052600436106100f75760003560e01c80639d0e5fd61161008a578063c9f0ec7e11610059578063c9f0ec7e1461035b578063e740f77014610377578063ed2cee9e14610393578063fcce4883146103be576100fe565b80639d0e5fd6146102a1578063aa929380146102ca578063b848de35146102f3578063bcead63e14610330576100fe565b80635bf8633a116100c65780635bf8633a146101bf5780635d19e56c146101ea5780635eed5fff1461022757806377fbc4ae14610264576100fe565b806308551a531461010357806312065fe01461012e57806314a72feb146101595780634dd4acaf14610182576100fe565b366100fe57005b600080fd5b34801561010f57600080fd5b506101186103fb565b6040516101259190610cf0565b60405180910390f35b34801561013a57600080fd5b50610143610421565b6040516101509190610d24565b60405180910390f35b34801561016557600080fd5b50610180600480360381019061017b9190610d70565b610429565b005b34801561018e57600080fd5b506101a960048036038101906101a49190610d70565b610495565b6040516101b69190610dbe565b60405180910390f35b3480156101cb57600080fd5b506101d46104c8565b6040516101e19190610dbe565b60405180910390f35b3480156101f657600080fd5b50610211600480360381019061020c9190610d70565b6104ec565b60405161021e9190610d24565b60405180910390f35b34801561023357600080fd5b5061024e60048036038101906102499190610d70565b610504565b60405161025b9190610df4565b60405180910390f35b34801561027057600080fd5b5061028b60048036038101906102869190610d70565b610524565b6040516102989190610d24565b60405180910390f35b3480156102ad57600080fd5b506102c860048036038101906102c39190610e3b565b61053c565b005b3480156102d657600080fd5b506102f160048036038101906102ec9190610d70565b6105fb565b005b3480156102ff57600080fd5b5061031a60048036038101906103159190610ea7565b61097b565b6040516103279190610df4565b60405180910390f35b34801561033c57600080fd5b506103456109aa565b6040516103529190610dbe565b60405180910390f35b61037560048036038101906103709190610ee7565b6109d0565b005b610391600480360381019061038c9190610d70565b610ba3565b005b34801561039f57600080fd5b506103a8610c69565b6040516103b59190610dbe565b60405180910390f35b3480156103ca57600080fd5b506103e560048036038101906103e09190610d70565b610c8f565b6040516103f29190610df4565b60405180910390f35b600160009054906101000a900473ffffffffffffffffffffffffffffffffffffffff1681565b600047905090565b60016009600083815260200190815260200160002060003373ffffffffffffffffffffffffffffffffffffffff1673ffffffffffffffffffffffffffffffffffffffff16815260200190815260200160002060006101000a81548160ff02191690831515021790555050565b60076020528060005260406000206000915054906101000a900473ffffffffffffffffffffffffffffffffffffffff1681565b60008054906101000a900473ffffffffffffffffffffffffffffffffffffffff1681565b60066020528060005260406000206000915090505481565b60086020528060005260406000206000915054906101000a900460ff1681565b60056020528060005260406000206000915090505481565b600360009054906101000a900473ffffffffffffffffffffffffffffffffffffffff1673ffffffffffffffffffffffffffffffffffffffff163373ffffffffffffffffffffffffffffffffffffffff16146105cc576040517f08c379a00000000000000000000000000000000000000000000000000000000081526004016105c390610fd1565b60405180910390fd5b806008600084815260200190815260200160002060006101000a81548160ff0219169083151502179055505050565b6008600082815260200190815260200160002060009054906101000a900460ff1661062557600080fd5b6009600082815260200190815260200160002060006007600084815260200190815260200160002060009054906101000a900473ffffffffffffffffffffffffffffffffffffffff1673ffffffffffffffffffffffffffffffffffffffff1673ffffffffffffffffffffffffffffffffffffffff16815260200190815260200160002060009054906101000a900460ff166106bf57600080fd5b600960008281526020019081526020016000206000600160009054906101000a900473ffffffffffffffffffffffffffffffffffffffff1673ffffffffffffffffffffffffffffffffffffffff1673ffffffffffffffffffffffffffffffffffffffff16815260200190815260200160002060009054906101000a900460ff1661074857600080fd5b600960008281526020019081526020016000206000600260009054906101000a900473ffffffffffffffffffffffffffffffffffffffff1673ffffffffffffffffffffffffffffffffffffffff1673ffffffffffffffffffffffffffffffffffffffff16815260200190815260200160002060009054906101000a900460ff166107d157600080fd5b60056000828152602001908152602001600020544710156107f157600080fd5b60006004600083815260200190815260200160002060006101000a81548160ff0219169083151502179055506000600160009054906101000a900473ffffffffffffffffffffffffffffffffffffffff1673ffffffffffffffffffffffffffffffffffffffff164760405161086590611022565b60006040518083038185875af1925050503d80600081146108a2576040519150601f19603f3d011682016040523d82523d6000602084013e6108a7565b606091505b50509050806108b557600080fd5b60008054906101000a900473ffffffffffffffffffffffffffffffffffffffff1673ffffffffffffffffffffffffffffffffffffffff166323b872dd306007600086815260200190815260200160002060009054906101000a900473ffffffffffffffffffffffffffffffffffffffff16856040518463ffffffff1660e01b815260040161094593929190611037565b600060405180830381600087803b15801561095f57600080fd5b505af1158015610973573d6000803e3d6000fd5b505050505050565b60096020528160005260406000206020528060005260406000206000915091509054906101000a900460ff1681565b600260009054906101000a900473ffffffffffffffffffffffffffffffffffffffff1681565b600160009054906101000a900473ffffffffffffffffffffffffffffffffffffffff1673ffffffffffffffffffffffffffffffffffffffff163373ffffffffffffffffffffffffffffffffffffffff1614610a60576040517f08c379a0000000000000000000000000000000000000000000000000000000008152600401610a57906110ba565b60405180910390fd5b60008054906101000a900473ffffffffffffffffffffffffffffffffffffffff1673ffffffffffffffffffffffffffffffffffffffff166323b872dd3330876040518463ffffffff1660e01b8152600401610abd93929190611037565b600060405180830381600087803b158015610ad757600080fd5b505af1158015610aeb573d6000803e3d6000fd5b5050505060016004600086815260200190815260200160002060006101000a81548160ff021916908315150217905550816005600086815260200190815260200160002081905550826007600086815260200190815260200160002060006101000a81548173ffffffffffffffffffffffffffffffffffffffff021916908373ffffffffffffffffffffffffffffffffffffffff16021790555080600660008681526020019081526020016000208190555050505050565b806007600082815260200190815260200160002060009054906101000a900473ffffffffffffffffffffffffffffffffffffffff1673ffffffffffffffffffffffffffffffffffffffff163373ffffffffffffffffffffffffffffffffffffffff1614610c45576040517f08c379a0000000000000000000000000000000000000000000000000000000008152600401610c3c90611126565b60405180910390fd5b6006600083815260200190815260200160002054341015610c6557600080fd5b5050565b600360009054906101000a900473ffffffffffffffffffffffffffffffffffffffff1681565b60046020528060005260406000206000915054906101000a900460ff1681565b600073ffffffffffffffffffffffffffffffffffffffff82169050919050565b6000610cda82610caf565b9050919050565b610cea81610ccf565b82525050565b6000602082019050610d056000830184610ce1565b92915050565b6000819050919050565b610d1e81610d0b565b82525050565b6000602082019050610d396000830184610d15565b92915050565b600080fd5b610d4d81610d0b565b8114610d5857600080fd5b50565b600081359050610d6a81610d44565b92915050565b600060208284031215610d8657610d85610d3f565b5b6000610d9484828501610d5b565b91505092915050565b6000610da882610caf565b9050919050565b610db881610d9d565b82525050565b6000602082019050610dd36000830184610daf565b92915050565b60008115159050919050565b610dee81610dd9565b82525050565b6000602082019050610e096000830184610de5565b92915050565b610e1881610dd9565b8114610e2357600080fd5b50565b600081359050610e3581610e0f565b92915050565b60008060408385031215610e5257610e51610d3f565b5b6000610e6085828601610d5b565b9250506020610e7185828601610e26565b9150509250929050565b610e8481610d9d565b8114610e8f57600080fd5b50565b600081359050610ea181610e7b565b92915050565b60008060408385031215610ebe57610ebd610d3f565b5b6000610ecc85828601610d5b565b9250506020610edd85828601610e92565b9150509250929050565b60008060008060808587031215610f0157610f00610d3f565b5b6000610f0f87828801610d5b565b9450506020610f2087828801610e92565b9350506040610f3187828801610d5b565b9250506060610f4287828801610d5b565b91505092959194509250565b600082825260208201905092915050565b7f4f6e6c7920696e73706563746f722063616e2063616c6c2074686973206d657460008201527f686f640000000000000000000000000000000000000000000000000000000000602082015250565b6000610fbb602383610f4e565b9150610fc682610f5f565b604082019050919050565b60006020820190508181036000830152610fea81610fae565b9050919050565b600081905092915050565b50565b600061100c600083610ff1565b915061101782610ffc565b600082019050919050565b600061102d82610fff565b9150819050919050565b600060608201905061104c6000830186610daf565b6110596020830185610daf565b6110666040830184610d15565b949350505050565b7f4f6e6c792073656c6c65722063616e2063616c6c2074686973206d6574686f64600082015250565b60006110a4602083610f4e565b91506110af8261106e565b602082019050919050565b600060208201905081810360008301526110d381611097565b9050919050565b7f6f6e6c792062757965722063616e2063616c6c2074686973206d6574686f6400600082015250565b6000611110601f83610f4e565b915061111b826110da565b602082019050919050565b6000602082019050818103600083015261113f81611103565b905091905056fea2646970667358221220053f6abb96c3e5edc7d7192436e94ef8160c40fc11dad94e2bb56f56bf79619564736f6c63430008110033",
  "linkReferences": {},
  "deployedLinkReferences": {}
}