{
  "_format": "hh-sol-artifact-1",
  "contractName": "Escrow",
  "sourceName": "contracts/Escrow.sol",
  "abi": [
    {
      "inputs": [
        {
          "internalType": "address",
          "name": "_nftAddress",
          "type": "address"
        },
        {
          "internalType": "address payable",
          "name": "_seller",
          "type": "address"
        },
        {
          "internalType": "address",
          "name": "_inspector",
          "type": "address"
        },
        {
          "internalType": "address",
          "name": "_lender",
          "type": "address"
        }
      ],
      "stateMutability": "nonpayable",
      "type": "constructor"
    },
    {
      "inputs": [
        {
          "internalType": "uint256",
          "name": "",
          "type": "uint256"
        }
      ],
      "name": "buyer",
      "outputs": [
        {
          "internalType": "address",
          "name": "",
          "type": "address"
        }
      ],
      "stateMutability": "view",
      "type": "function"
    },
    {
      "inputs": [
        {
          "internalType": "uint256",
          "name": "_nftID",
          "type": "uint256"
        }
      ],
      "name": "depositEarnest",
      "outputs": [],
      "stateMutability": "payable",
      "type": "function"
    },
    {
      "inputs": [
        {
          "internalType": "uint256",
          "name": "",
          "type": "uint256"
        }
      ],
      "name": "escrowAmount",
      "outputs": [
        {
          "internalType": "uint256",
          "name": "",
          "type": "uint256"
        }
      ],
      "stateMutability": "view",
      "type": "function"
    },
    {
      "inputs": [],
      "name": "getBalance",
      "outputs": [
        {
          "internalType": "uint256",
          "name": "",
          "type": "uint256"
        }
      ],
      "stateMutability": "view",
      "type": "function"
    },
    {
      "inputs": [
        {
          "internalType": "uint256",
          "name": "",
          "type": "uint256"
        }
      ],
      "name": "inspectionPassed",
      "outputs": [
        {
          "internalType": "bool",
          "name": "",
          "type": "bool"
        }
      ],
      "stateMutability": "view",
      "type": "function"
    },
    {
      "inputs": [],
      "name": "inspector",
      "outputs": [
        {
          "internalType": "address",
          "name": "",
          "type": "address"
        }
      ],
      "stateMutability": "view",
      "type": "function"
    },
    {
      "inputs": [
        {
          "internalType": "uint256",
          "name": "",
          "type": "uint256"
        }
      ],
      "name": "isListed",
      "outputs": [
        {
          "internalType": "bool",
          "name": "",
          "type": "bool"
        }
      ],
      "stateMutability": "view",
      "type": "function"
    },
    {
      "inputs": [],
      "name": "lender",
      "outputs": [
        {
          "internalType": "address",
          "name": "",
          "type": "address"
        }
      ],
      "stateMutability": "view",
      "type": "function"
    },
    {
      "inputs": [
        {
          "internalType": "uint256",
          "name": "_nftID",
          "type": "uint256"
        },
        {
          "internalType": "address",
          "name": "_buyer",
          "type": "address"
        },
        {
          "internalType": "uint256",
          "name": "_purchasePrice",
          "type": "uint256"
        },
        {
          "internalType": "uint256",
          "name": "_escrowAmount",
          "type": "uint256"
        }
      ],
      "name": "list",
      "outputs": [],
      "stateMutability": "payable",
      "type": "function"
    },
    {
      "inputs": [],
      "name": "nftAddress",
      "outputs": [
        {
          "internalType": "address",
          "name": "",
          "type": "address"
        }
      ],
      "stateMutability": "view",
      "type": "function"
    },
    {
      "inputs": [
        {
          "internalType": "uint256",
          "name": "",
          "type": "uint256"
        }
      ],
      "name": "purchasePrice",
      "outputs": [
        {
          "internalType": "uint256",
          "name": "",
          "type": "uint256"
        }
      ],
      "stateMutability": "view",
      "type": "function"
    },
    {
      "inputs": [],
      "name": "seller",
      "outputs": [
        {
          "internalType": "address payable",
          "name": "",
          "type": "address"
        }
      ],
      "stateMutability": "view",
      "type": "function"
    },
    {
      "inputs": [
        {
          "internalType": "uint256",
          "name": "_nftID",
          "type": "uint256"
        },
        {
          "internalType": "bool",
          "name": "_passed",
          "type": "bool"
        }
      ],
      "name": "updateInspectionStatus",
      "outputs": [],
      "stateMutability": "nonpayable",
      "type": "function"
    },
    {
      "stateMutability": "payable",
      "type": "receive"
    }
  ],
  "bytecode": "0x60806040523480156200001157600080fd5b5060405162000e9038038062000e908339818101604052810190620000379190620001f3565b836000806101000a81548173ffffffffffffffffffffffffffffffffffffffff021916908373ffffffffffffffffffffffffffffffffffffffff16021790555082600160006101000a81548173ffffffffffffffffffffffffffffffffffffffff021916908373ffffffffffffffffffffffffffffffffffffffff16021790555081600360006101000a81548173ffffffffffffffffffffffffffffffffffffffff021916908373ffffffffffffffffffffffffffffffffffffffff16021790555080600260006101000a81548173ffffffffffffffffffffffffffffffffffffffff021916908373ffffffffffffffffffffffffffffffffffffffff1602179055505050505062000265565b600080fd5b600073ffffffffffffffffffffffffffffffffffffffff82169050919050565b6000620001768262000149565b9050919050565b620001888162000169565b81146200019457600080fd5b50565b600081519050620001a8816200017d565b92915050565b6000620001bb8262000149565b9050919050565b620001cd81620001ae565b8114620001d957600080fd5b50565b600081519050620001ed81620001c2565b92915050565b6000806000806080858703121562000210576200020f62000144565b5b6000620002208782880162000197565b94505060206200023387828801620001dc565b9350506040620002468782880162000197565b9250506060620002598782880162000197565b91505092959194509250565b610c1b80620002756000396000f3fe6080604052600436106100c65760003560e01c806377fbc4ae1161007f578063c9f0ec7e11610059578063c9f0ec7e1461029b578063e740f770146102b7578063ed2cee9e146102d3578063fcce4883146102fe576100cd565b806377fbc4ae1461020a5780639d0e5fd614610247578063bcead63e14610270576100cd565b806308551a53146100d257806312065fe0146100fd5780634dd4acaf146101285780635bf8633a146101655780635d19e56c146101905780635eed5fff146101cd576100cd565b366100cd57005b600080fd5b3480156100de57600080fd5b506100e761033b565b6040516100f49190610815565b60405180910390f35b34801561010957600080fd5b50610112610361565b60405161011f9190610849565b60405180910390f35b34801561013457600080fd5b5061014f600480360381019061014a9190610895565b610369565b60405161015c91906108e3565b60405180910390f35b34801561017157600080fd5b5061017a61039c565b60405161018791906108e3565b60405180910390f35b34801561019c57600080fd5b506101b760048036038101906101b29190610895565b6103c0565b6040516101c49190610849565b60405180910390f35b3480156101d957600080fd5b506101f460048036038101906101ef9190610895565b6103d8565b6040516102019190610919565b60405180910390f35b34801561021657600080fd5b50610231600480360381019061022c9190610895565b6103f8565b60405161023e9190610849565b60405180910390f35b34801561025357600080fd5b5061026e60048036038101906102699190610960565b610410565b005b34801561027c57600080fd5b506102856104cf565b60405161029291906108e3565b60405180910390f35b6102b560048036038101906102b091906109cc565b6104f5565b005b6102d160048036038101906102cc9190610895565b6106c8565b005b3480156102df57600080fd5b506102e861078e565b6040516102f591906108e3565b60405180910390f35b34801561030a57600080fd5b5061032560048036038101906103209190610895565b6107b4565b6040516103329190610919565b60405180910390f35b600160009054906101000a900473ffffffffffffffffffffffffffffffffffffffff1681565b600047905090565b60076020528060005260406000206000915054906101000a900473ffffffffffffffffffffffffffffffffffffffff1681565b60008054906101000a900473ffffffffffffffffffffffffffffffffffffffff1681565b60066020528060005260406000206000915090505481565b60086020528060005260406000206000915054906101000a900460ff1681565b60056020528060005260406000206000915090505481565b600360009054906101000a900473ffffffffffffffffffffffffffffffffffffffff1673ffffffffffffffffffffffffffffffffffffffff163373ffffffffffffffffffffffffffffffffffffffff16146104a0576040517f08c379a000000000000000000000000000000000000000000000000000000000815260040161049790610ab6565b60405180910390fd5b806008600084815260200190815260200160002060006101000a81548160ff0219169083151502179055505050565b600260009054906101000a900473ffffffffffffffffffffffffffffffffffffffff1681565b600160009054906101000a900473ffffffffffffffffffffffffffffffffffffffff1673ffffffffffffffffffffffffffffffffffffffff163373ffffffffffffffffffffffffffffffffffffffff1614610585576040517f08c379a000000000000000000000000000000000000000000000000000000000815260040161057c90610b22565b60405180910390fd5b60008054906101000a900473ffffffffffffffffffffffffffffffffffffffff1673ffffffffffffffffffffffffffffffffffffffff166323b872dd3330876040518463ffffffff1660e01b81526004016105e293929190610b42565b600060405180830381600087803b1580156105fc57600080fd5b505af1158015610610573d6000803e3d6000fd5b5050505060016004600086815260200190815260200160002060006101000a81548160ff021916908315150217905550816005600086815260200190815260200160002081905550826007600086815260200190815260200160002060006101000a81548173ffffffffffffffffffffffffffffffffffffffff021916908373ffffffffffffffffffffffffffffffffffffffff16021790555080600660008681526020019081526020016000208190555050505050565b806007600082815260200190815260200160002060009054906101000a900473ffffffffffffffffffffffffffffffffffffffff1673ffffffffffffffffffffffffffffffffffffffff163373ffffffffffffffffffffffffffffffffffffffff161461076a576040517f08c379a000000000000000000000000000000000000000000000000000000000815260040161076190610bc5565b60405180910390fd5b600660008381526020019081526020016000205434101561078a57600080fd5b5050565b600360009054906101000a900473ffffffffffffffffffffffffffffffffffffffff1681565b60046020528060005260406000206000915054906101000a900460ff1681565b600073ffffffffffffffffffffffffffffffffffffffff82169050919050565b60006107ff826107d4565b9050919050565b61080f816107f4565b82525050565b600060208201905061082a6000830184610806565b92915050565b6000819050919050565b61084381610830565b82525050565b600060208201905061085e600083018461083a565b92915050565b600080fd5b61087281610830565b811461087d57600080fd5b50565b60008135905061088f81610869565b92915050565b6000602082840312156108ab576108aa610864565b5b60006108b984828501610880565b91505092915050565b60006108cd826107d4565b9050919050565b6108dd816108c2565b82525050565b60006020820190506108f860008301846108d4565b92915050565b60008115159050919050565b610913816108fe565b82525050565b600060208201905061092e600083018461090a565b92915050565b61093d816108fe565b811461094857600080fd5b50565b60008135905061095a81610934565b92915050565b6000806040838503121561097757610976610864565b5b600061098585828601610880565b92505060206109968582860161094b565b9150509250929050565b6109a9816108c2565b81146109b457600080fd5b50565b6000813590506109c6816109a0565b92915050565b600080600080608085870312156109e6576109e5610864565b5b60006109f487828801610880565b9450506020610a05878288016109b7565b9350506040610a1687828801610880565b9250506060610a2787828801610880565b91505092959194509250565b600082825260208201905092915050565b7f4f6e6c7920696e73706563746f722063616e2063616c6c2074686973206d657460008201527f686f640000000000000000000000000000000000000000000000000000000000602082015250565b6000610aa0602383610a33565b9150610aab82610a44565b604082019050919050565b60006020820190508181036000830152610acf81610a93565b9050919050565b7f4f6e6c792073656c6c65722063616e2063616c6c2074686973206d6574686f64600082015250565b6000610b0c602083610a33565b9150610b1782610ad6565b602082019050919050565b60006020820190508181036000830152610b3b81610aff565b9050919050565b6000606082019050610b5760008301866108d4565b610b6460208301856108d4565b610b71604083018461083a565b949350505050565b7f6f6e6c792062757965722063616e2063616c6c2074686973206d6574686f6400600082015250565b6000610baf601f83610a33565b9150610bba82610b79565b602082019050919050565b60006020820190508181036000830152610bde81610ba2565b905091905056fea2646970667358221220bf817d03545f8bab69869236d9343517f355b618f99c2c1802f5810c2e0b285264736f6c63430008110033",
  "linkReferences": {},
  "deployedLinkReferences": {}
}